{
  "abi": [
    {
      "inputs": [
        {
          "internalType": "string",
          "name": "name_",
          "type": "string"
        },
        {
          "internalType": "string",
          "name": "symbol_",
          "type": "string"
        },
        {
          "internalType": "string",
          "name": "tokenUri_",
          "type": "string"
        },
        {
          "internalType": "uint256",
          "name": "mintCost_",
          "type": "uint256"
        },
        {
          "internalType": "uint96",
          "name": "royaltyFraction_",
          "type": "uint96"
        },
        {
          "internalType": "uint16",
          "name": "maxSupply_",
          "type": "uint16"
        },
        {
          "internalType": "uint8",
          "name": "maxMint_",
          "type": "uint8"
        },
        {
          "internalType": "address",
          "name": "admin",
          "type": "address"
        }
      ],
      "stateMutability": "nonpayable",
      "type": "constructor"
    },
    {
      "anonymous": false,
      "inputs": [
        {
          "indexed": true,
          "internalType": "address",
          "name": "owner",
          "type": "address"
        },
        {
          "indexed": true,
          "internalType": "address",
          "name": "approved",
          "type": "address"
        },
        {
          "indexed": true,
          "internalType": "uint256",
          "name": "tokenId",
          "type": "uint256"
        }
      ],
      "name": "Approval",
      "type": "event"
    },
    {
      "anonymous": false,
      "inputs": [
        {
          "indexed": true,
          "internalType": "address",
          "name": "owner",
          "type": "address"
        },
        {
          "indexed": true,
          "internalType": "address",
          "name": "operator",
          "type": "address"
        },
        {
          "indexed": false,
          "internalType": "bool",
          "name": "approved",
          "type": "bool"
        }
      ],
      "name": "ApprovalForAll",
      "type": "event"
    },
    {
      "anonymous": false,
      "inputs": [
        {
          "indexed": false,
          "internalType": "uint256",
          "name": "oldMintCost",
          "type": "uint256"
        },
        {
          "indexed": false,
          "internalType": "uint256",
          "name": "newMintCost",
          "type": "uint256"
        }
      ],
      "name": "MintCostUpdated",
      "type": "event"
    },
    {
      "anonymous": false,
      "inputs": [
        {
          "indexed": true,
          "internalType": "address",
          "name": "mintedBy",
          "type": "address"
        },
        {
          "indexed": true,
          "internalType": "uint16",
          "name": "tokenId",
          "type": "uint16"
        },
        {
          "indexed": false,
          "internalType": "uint256",
          "name": "cost",
          "type": "uint256"
        }
      ],
      "name": "NFTMinted",
      "type": "event"
    },
    {
      "anonymous": false,
      "inputs": [
        {
          "indexed": true,
          "internalType": "address",
          "name": "previousOwner",
          "type": "address"
        },
        {
          "indexed": true,
          "internalType": "address",
          "name": "newOwner",
          "type": "address"
        }
      ],
      "name": "OwnershipTransferred",
      "type": "event"
    },
    {
      "anonymous": false,
      "inputs": [],
      "name": "Tester",
      "type": "event"
    },
    {
      "anonymous": false,
      "inputs": [
        {
          "indexed": true,
          "internalType": "address",
          "name": "from",
          "type": "address"
        },
        {
          "indexed": true,
          "internalType": "address",
          "name": "to",
          "type": "address"
        },
        {
          "indexed": true,
          "internalType": "uint256",
          "name": "tokenId",
          "type": "uint256"
        }
      ],
      "name": "Transfer",
      "type": "event"
    },
    {
      "stateMutability": "payable",
      "type": "fallback"
    },
    {
      "inputs": [],
      "name": "MAX_MINT",
      "outputs": [
        {
          "internalType": "uint8",
          "name": "",
          "type": "uint8"
        }
      ],
      "stateMutability": "view",
      "type": "function"
    },
    {
      "inputs": [],
      "name": "MAX_SUPPLY",
      "outputs": [
        {
          "internalType": "uint16",
          "name": "",
          "type": "uint16"
        }
      ],
      "stateMutability": "view",
      "type": "function"
    },
    {
      "inputs": [
        {
          "internalType": "address",
          "name": "to",
          "type": "address"
        },
        {
          "internalType": "uint256",
          "name": "tokenId",
          "type": "uint256"
        }
      ],
      "name": "approve",
      "outputs": [],
      "stateMutability": "nonpayable",
      "type": "function"
    },
    {
      "inputs": [
        {
          "internalType": "address",
          "name": "owner",
          "type": "address"
        }
      ],
      "name": "balanceOf",
      "outputs": [
        {
          "internalType": "uint256",
          "name": "",
          "type": "uint256"
        }
      ],
      "stateMutability": "view",
      "type": "function"
    },
    {
      "inputs": [
        {
          "internalType": "uint256",
          "name": "tokenId",
          "type": "uint256"
        }
      ],
      "name": "getApproved",
      "outputs": [
        {
          "internalType": "address",
          "name": "",
          "type": "address"
        }
      ],
      "stateMutability": "view",
      "type": "function"
    },
    {
      "inputs": [
        {
          "internalType": "address",
          "name": "owner",
          "type": "address"
        },
        {
          "internalType": "address",
          "name": "operator",
          "type": "address"
        }
      ],
      "name": "isApprovedForAll",
      "outputs": [
        {
          "internalType": "bool",
          "name": "",
          "type": "bool"
        }
      ],
      "stateMutability": "view",
      "type": "function"
    },
    {
      "inputs": [],
      "name": "mintCost",
      "outputs": [
        {
          "internalType": "uint256",
          "name": "",
          "type": "uint256"
        }
      ],
      "stateMutability": "view",
      "type": "function"
    },
    {
      "inputs": [],
      "name": "name",
      "outputs": [
        {
          "internalType": "string",
          "name": "",
          "type": "string"
        }
      ],
      "stateMutability": "view",
      "type": "function"
    },
    {
      "inputs": [],
      "name": "owner",
      "outputs": [
        {
          "internalType": "address",
          "name": "",
          "type": "address"
        }
      ],
      "stateMutability": "view",
      "type": "function"
    },
    {
      "inputs": [
        {
          "internalType": "uint256",
          "name": "tokenId",
          "type": "uint256"
        }
      ],
      "name": "ownerOf",
      "outputs": [
        {
          "internalType": "address",
          "name": "",
          "type": "address"
        }
      ],
      "stateMutability": "view",
      "type": "function"
    },
    {
      "inputs": [
        {
          "internalType": "uint8",
          "name": "amount",
          "type": "uint8"
        }
      ],
      "name": "publicMint",
      "outputs": [],
      "stateMutability": "payable",
      "type": "function"
    },
    {
      "inputs": [],
      "name": "renounceOwnership",
      "outputs": [],
      "stateMutability": "nonpayable",
      "type": "function"
    },
    {
      "inputs": [],
      "name": "royaltyFraction",
      "outputs": [
        {
          "internalType": "uint96",
          "name": "",
          "type": "uint96"
        }
      ],
      "stateMutability": "view",
      "type": "function"
    },
    {
      "inputs": [
        {
          "internalType": "uint256",
          "name": "tokenId",
          "type": "uint256"
        },
        {
          "internalType": "uint256",
          "name": "salePrice",
          "type": "uint256"
        }
      ],
      "name": "royaltyInfo",
      "outputs": [
        {
          "internalType": "address",
          "name": "",
          "type": "address"
        },
        {
          "internalType": "uint256",
          "name": "",
          "type": "uint256"
        }
      ],
      "stateMutability": "view",
      "type": "function"
    },
    {
      "inputs": [
        {
          "internalType": "address",
          "name": "from",
          "type": "address"
        },
        {
          "internalType": "address",
          "name": "to",
          "type": "address"
        },
        {
          "internalType": "uint256",
          "name": "tokenId",
          "type": "uint256"
        }
      ],
      "name": "safeTransferFrom",
      "outputs": [],
      "stateMutability": "nonpayable",
      "type": "function"
    },
    {
      "inputs": [
        {
          "internalType": "address",
          "name": "from",
          "type": "address"
        },
        {
          "internalType": "address",
          "name": "to",
          "type": "address"
        },
        {
          "internalType": "uint256",
          "name": "tokenId",
          "type": "uint256"
        },
        {
          "internalType": "bytes",
          "name": "data",
          "type": "bytes"
        }
      ],
      "name": "safeTransferFrom",
      "outputs": [],
      "stateMutability": "nonpayable",
      "type": "function"
    },
    {
      "inputs": [
        {
          "internalType": "address",
          "name": "operator",
          "type": "address"
        },
        {
          "internalType": "bool",
          "name": "approved",
          "type": "bool"
        }
      ],
      "name": "setApprovalForAll",
      "outputs": [],
      "stateMutability": "nonpayable",
      "type": "function"
    },
    {
      "inputs": [
        {
          "internalType": "bytes4",
          "name": "interfaceId",
          "type": "bytes4"
        }
      ],
      "name": "supportsInterface",
      "outputs": [
        {
          "internalType": "bool",
          "name": "",
          "type": "bool"
        }
      ],
      "stateMutability": "view",
      "type": "function"
    },
    {
      "inputs": [],
      "name": "symbol",
      "outputs": [
        {
          "internalType": "string",
          "name": "",
          "type": "string"
        }
      ],
      "stateMutability": "view",
      "type": "function"
    },
    {
      "inputs": [
        {
          "internalType": "uint256",
          "name": "index",
          "type": "uint256"
        }
      ],
      "name": "tokenByIndex",
      "outputs": [
        {
          "internalType": "uint256",
          "name": "",
          "type": "uint256"
        }
      ],
      "stateMutability": "view",
      "type": "function"
    },
    {
      "inputs": [
        {
          "internalType": "address",
          "name": "owner",
          "type": "address"
        },
        {
          "internalType": "uint256",
          "name": "index",
          "type": "uint256"
        }
      ],
      "name": "tokenOfOwnerByIndex",
      "outputs": [
        {
          "internalType": "uint256",
          "name": "",
          "type": "uint256"
        }
      ],
      "stateMutability": "view",
      "type": "function"
    },
    {
      "inputs": [
        {
          "internalType": "uint256",
          "name": "tokenId_",
          "type": "uint256"
        }
      ],
      "name": "tokenURI",
      "outputs": [
        {
          "internalType": "string",
          "name": "",
          "type": "string"
        }
      ],
      "stateMutability": "view",
      "type": "function"
    },
    {
      "inputs": [],
      "name": "tokenUri",
      "outputs": [
        {
          "internalType": "string",
          "name": "",
          "type": "string"
        }
      ],
      "stateMutability": "view",
      "type": "function"
    },
    {
      "inputs": [
        {
          "internalType": "address",
          "name": "",
          "type": "address"
        }
      ],
      "name": "totalMinted",
      "outputs": [
        {
          "internalType": "uint16",
          "name": "",
          "type": "uint16"
        }
      ],
      "stateMutability": "view",
      "type": "function"
    },
    {
      "inputs": [],
      "name": "totalSupply",
      "outputs": [
        {
          "internalType": "uint256",
          "name": "",
          "type": "uint256"
        }
      ],
      "stateMutability": "view",
      "type": "function"
    },
    {
      "inputs": [
        {
          "internalType": "address",
          "name": "from",
          "type": "address"
        },
        {
          "internalType": "address",
          "name": "to",
          "type": "address"
        },
        {
          "internalType": "uint256",
          "name": "tokenId",
          "type": "uint256"
        }
      ],
      "name": "transferFrom",
      "outputs": [],
      "stateMutability": "nonpayable",
      "type": "function"
    },
    {
      "inputs": [
        {
          "internalType": "address",
          "name": "newOwner",
          "type": "address"
        }
      ],
      "name": "transferOwnership",
      "outputs": [],
      "stateMutability": "nonpayable",
      "type": "function"
    },
    {
      "inputs": [
        {
          "internalType": "uint256",
          "name": "_mintCost",
          "type": "uint256"
        }
      ],
      "name": "updateMintCost",
      "outputs": [],
      "stateMutability": "nonpayable",
      "type": "function"
    },
    {
      "stateMutability": "payable",
      "type": "receive"
    }
  ],
  "bytecode": {
    "object": "0x60e06040523480156200001157600080fd5b50604051620037283803806200372883398101604081905262000034916200051d565b8787600362000044838262000692565b50600462000053828262000692565b505050620000706200006a6200011a60201b60201c565b6200011e565b6001600e55601062000083878262000692565b50600f8590556001600160601b03841660805261ffff831660a05260ff821660c052620000b08162000170565b620000c4816080516200021e60201b60201c565b620000d66380ac58cd60e01b6200031f565b620000e8635b5e139f60e01b6200031f565b620000fa63780e9d6360e01b6200031f565b6200010c63152a902d60e11b6200031f565b50505050505050506200075e565b3390565b600d80546001600160a01b038381166001600160a01b0319831681179093556040519116919082907f8be0079c531659141344cd1fd0a4f28419497f9722a3daafe3b4186f6b6457e090600090a35050565b6200017a620003a0565b6001600160a01b038116620001fc5760405162461bcd60e51b815260206004820152603560248201527f4c6f7265756d4e46543a3a7472616e736665724f776e6572736869702829206e60448201527f65774f776e6572203d3d2061646472657373283029000000000000000000000060648201526084015b60405180910390fd5b62000207816200011e565b6200021b816080516200021e60201b60201c565b50565b6127106001600160601b03821611156200028e5760405162461bcd60e51b815260206004820152602a60248201527f455243323938313a20726f79616c7479206665652077696c6c206578636565646044820152692073616c65507269636560b01b6064820152608401620001f3565b6001600160a01b038216620002e65760405162461bcd60e51b815260206004820152601960248201527f455243323938313a20696e76616c6964207265636569766572000000000000006044820152606401620001f3565b604080518082019091526001600160a01b039092168083526001600160601b039091166020909201829052600160a01b90910217600155565b6001600160e01b031980821690036200037b5760405162461bcd60e51b815260206004820152601c60248201527f4552433136353a20696e76616c696420696e74657266616365206964000000006044820152606401620001f3565b6001600160e01b0319166000908152602081905260409020805460ff19166001179055565b600d546001600160a01b03163314620003fc5760405162461bcd60e51b815260206004820181905260248201527f4f776e61626c653a2063616c6c6572206973206e6f7420746865206f776e65726044820152606401620001f3565b565b634e487b7160e01b600052604160045260246000fd5b600082601f8301126200042657600080fd5b81516001600160401b0380821115620004435762000443620003fe565b604051601f8301601f19908116603f011681019082821181831017156200046e576200046e620003fe565b816040528381526020925086838588010111156200048b57600080fd5b600091505b83821015620004af578582018301518183018401529082019062000490565b600093810190920192909252949350505050565b80516001600160601b0381168114620004db57600080fd5b919050565b805161ffff81168114620004db57600080fd5b805160ff81168114620004db57600080fd5b80516001600160a01b0381168114620004db57600080fd5b600080600080600080600080610100898b0312156200053b57600080fd5b88516001600160401b03808211156200055357600080fd5b620005618c838d0162000414565b995060208b01519150808211156200057857600080fd5b620005868c838d0162000414565b985060408b01519150808211156200059d57600080fd5b50620005ac8b828c0162000414565b96505060608901519450620005c460808a01620004c3565b9350620005d460a08a01620004e0565b9250620005e460c08a01620004f3565b9150620005f460e08a0162000505565b90509295985092959890939650565b600181811c908216806200061857607f821691505b6020821081036200063957634e487b7160e01b600052602260045260246000fd5b50919050565b601f8211156200068d57600081815260208120601f850160051c81016020861015620006685750805b601f850160051c820191505b81811015620006895782815560010162000674565b5050505b505050565b81516001600160401b03811115620006ae57620006ae620003fe565b620006c681620006bf845462000603565b846200063f565b602080601f831160018114620006fe5760008415620006e55750858301515b600019600386901b1c1916600185901b17855562000689565b600085815260208120601f198616915b828110156200072f578886015182559484019460019091019084016200070e565b50858210156200074e5787850151600019600388901b60f8161c191681555b5050505050600190811b01905550565b60805160a05160c051612f7e620007aa600039600081816105d60152610edf01526000818161038801528181610fce015261100401526000818161052f01526113fd0152612f7e6000f3fe6080604052600436106101a25760003560e01c80636352211e116100e0578063b88d4fde11610084578063e7dee99f11610061578063e7dee99f1461051d578063e985e9c51461056e578063f0292a03146105c4578063f2fde38b1461060a57005b8063b88d4fde146104c7578063bdb4b848146104e7578063c87b56dd146104fd57005b8063858e83b5116100bd578063858e83b5146104545780638da5cb5b1461046757806395d89b4114610492578063a22cb465146104a757005b80636352211e146103ff57806370a082311461041f578063715018a61461043f57005b806328d911fb1161014757806332cb6b0c1161012457806332cb6b0c14610376578063355e0c5d146103aa57806342842e0e146103bf5780634f6ccce7146103df57005b806328d911fb146102ea5780632a55205a1461030a5780632f745c591461035657005b8063081812fc11610180578063081812fc14610246578063095ea7b31461028b57806318160ddd146102ab57806323b872dd146102ca57005b80623d4790146101ab57806301ffc9a7146101f457806306fdde031461022457005b366101a957005b005b3480156101b757600080fd5b506101dc6101c6366004612902565b60116020526000908152604090205461ffff1681565b60405161ffff90911681526020015b60405180910390f35b34801561020057600080fd5b5061021461020f366004612952565b61062a565b60405190151581526020016101eb565b34801561023057600080fd5b5061023961063b565b6040516101eb91906129dd565b34801561025257600080fd5b506102666102613660046129f0565b6106cd565b60405173ffffffffffffffffffffffffffffffffffffffff90911681526020016101eb565b34801561029757600080fd5b506101a96102a6366004612a09565b610701565b3480156102b757600080fd5b50600b545b6040519081526020016101eb565b3480156102d657600080fd5b506101a96102e5366004612a33565b610892565b3480156102f657600080fd5b506101a96103053660046129f0565b610933565b34801561031657600080fd5b5061032a610325366004612a6f565b61097c565b6040805173ffffffffffffffffffffffffffffffffffffffff90931683526020830191909152016101eb565b34801561036257600080fd5b506102bc610371366004612a09565b610a73565b34801561038257600080fd5b506101dc7f000000000000000000000000000000000000000000000000000000000000000081565b3480156103b657600080fd5b50610239610b42565b3480156103cb57600080fd5b506101a96103da366004612a33565b610bd0565b3480156103eb57600080fd5b506102bc6103fa3660046129f0565b610beb565b34801561040b57600080fd5b5061026661041a3660046129f0565b610ca9565b34801561042b57600080fd5b506102bc61043a366004612902565b610d35565b34801561044b57600080fd5b506101a9610e03565b6101a9610462366004612a91565b610e17565b34801561047357600080fd5b50600d5473ffffffffffffffffffffffffffffffffffffffff16610266565b34801561049e57600080fd5b50610239611249565b3480156104b357600080fd5b506101a96104c2366004612ab4565b611258565b3480156104d357600080fd5b506101a96104e2366004612b1f565b611267565b3480156104f357600080fd5b506102bc600f5481565b34801561050957600080fd5b506102396105183660046129f0565b61130f565b34801561052957600080fd5b506105517f000000000000000000000000000000000000000000000000000000000000000081565b6040516bffffffffffffffffffffffff90911681526020016101eb565b34801561057a57600080fd5b50610214610589366004612c19565b73ffffffffffffffffffffffffffffffffffffffff918216600090815260086020908152604080832093909416825291909152205460ff1690565b3480156105d057600080fd5b506105f87f000000000000000000000000000000000000000000000000000000000000000081565b60405160ff90911681526020016101eb565b34801561061657600080fd5b506101a9610625366004612902565b611343565b600061063582611421565b92915050565b60606003805461064a90612c4c565b80601f016020809104026020016040519081016040528092919081815260200182805461067690612c4c565b80156106c35780601f10610698576101008083540402835291602001916106c3565b820191906000526020600020905b8154815290600101906020018083116106a657829003601f168201915b5050505050905090565b60006106d8826114a6565b5060009081526007602052604090205473ffffffffffffffffffffffffffffffffffffffff1690565b600061070c82610ca9565b90508073ffffffffffffffffffffffffffffffffffffffff168373ffffffffffffffffffffffffffffffffffffffff16036107ce576040517f08c379a000000000000000000000000000000000000000000000000000000000815260206004820152602160248201527f4552433732313a20617070726f76616c20746f2063757272656e74206f776e6560448201527f720000000000000000000000000000000000000000000000000000000000000060648201526084015b60405180910390fd5b3373ffffffffffffffffffffffffffffffffffffffff821614806107f757506107f78133610589565b610883576040517f08c379a000000000000000000000000000000000000000000000000000000000815260206004820152603d60248201527f4552433732313a20617070726f76652063616c6c6572206973206e6f7420746f60448201527f6b656e206f776e6572206f7220617070726f76656420666f7220616c6c00000060648201526084016107c5565b61088d8383611531565b505050565b61089c33826115d1565b610928576040517f08c379a000000000000000000000000000000000000000000000000000000000815260206004820152602d60248201527f4552433732313a2063616c6c6572206973206e6f7420746f6b656e206f776e6560448201527f72206f7220617070726f7665640000000000000000000000000000000000000060648201526084016107c5565b61088d838383611691565b61093b611999565b600f5460408051918252602082018390527ff2d0a88ac0eb659494126aa247c8ecc18ffd14671e7ea7dd59ac6e03aaf2def9910160405180910390a1600f55565b600082815260026020908152604080832081518083019092525473ffffffffffffffffffffffffffffffffffffffff8116808352740100000000000000000000000000000000000000009091046bffffffffffffffffffffffff16928201929092528291610a3757506040805180820190915260015473ffffffffffffffffffffffffffffffffffffffff811682527401000000000000000000000000000000000000000090046bffffffffffffffffffffffff1660208201525b602081015160009061271090610a5b906bffffffffffffffffffffffff1687612cce565b610a659190612ce5565b915196919550909350505050565b6000610a7e83610d35565b8210610b0c576040517f08c379a000000000000000000000000000000000000000000000000000000000815260206004820152602b60248201527f455243373231456e756d657261626c653a206f776e657220696e646578206f7560448201527f74206f6620626f756e647300000000000000000000000000000000000000000060648201526084016107c5565b5073ffffffffffffffffffffffffffffffffffffffff919091166000908152600960209081526040808320938352929052205490565b60108054610b4f90612c4c565b80601f0160208091040260200160405190810160405280929190818152602001828054610b7b90612c4c565b8015610bc85780601f10610b9d57610100808354040283529160200191610bc8565b820191906000526020600020905b815481529060010190602001808311610bab57829003601f168201915b505050505081565b61088d83838360405180602001604052806000815250611267565b6000610bf6600b5490565b8210610c84576040517f08c379a000000000000000000000000000000000000000000000000000000000815260206004820152602c60248201527f455243373231456e756d657261626c653a20676c6f62616c20696e646578206f60448201527f7574206f6620626f756e6473000000000000000000000000000000000000000060648201526084016107c5565b600b8281548110610c9757610c97612d20565b90600052602060002001549050919050565b60008181526005602052604081205473ffffffffffffffffffffffffffffffffffffffff1680610635576040517f08c379a000000000000000000000000000000000000000000000000000000000815260206004820152601860248201527f4552433732313a20696e76616c696420746f6b656e204944000000000000000060448201526064016107c5565b600073ffffffffffffffffffffffffffffffffffffffff8216610dda576040517f08c379a000000000000000000000000000000000000000000000000000000000815260206004820152602960248201527f4552433732313a2061646472657373207a65726f206973206e6f74206120766160448201527f6c6964206f776e6572000000000000000000000000000000000000000000000060648201526084016107c5565b5073ffffffffffffffffffffffffffffffffffffffff1660009081526006602052604090205490565b610e0b611999565b610e156000611a1a565b565b610e1f611a91565b600f54610e2f9060ff8316612cce565b3414610ebd576040517f08c379a000000000000000000000000000000000000000000000000000000000815260206004820152603660248201527f4c6f7265756d4e46543a3a7075626c69634d696e742829206d73672e76616c7560448201527f6520213d20616d6f756e74202a206d696e74436f73740000000000000000000060648201526084016107c5565b60008160ff16118015610f1a57503360009081526011602052604090205460ff7f0000000000000000000000000000000000000000000000000000000000000000811691610f139161ffff909116908416612d4f565b61ffff1611155b610fcc576040517f08c379a000000000000000000000000000000000000000000000000000000000815260206004820152605460248201527f4c6f7265756d4e46543a3a7075626c69634d696e74282920616d6f756e74203d60448201527f3d2030207c7c20616d6f756e74202b20746f74616c4d696e7465645b5f6d736760648201527f53656e64657228295d203e204d41585f4d494e54000000000000000000000000608482015260a4016107c5565b7f000000000000000000000000000000000000000000000000000000000000000061ffff16610ffa600b5490565b10801561104157507f000000000000000000000000000000000000000000000000000000000000000061ffff168160ff16611034600b5490565b61103e9190612d71565b11155b6110f3576040517f08c379a000000000000000000000000000000000000000000000000000000000815260206004820152604c60248201527f4c6f7265756d4e46543a3a7075626c69634d696e742829206d696e746564203e60448201527f3d204d41585f535550504c59207c7c206d696e746564202b20616d6f756e742060648201527f3e204d41585f535550504c590000000000000000000000000000000000000000608482015260a4016107c5565b336000908152601160205260408120805460ff8416929061111990849061ffff16612d4f565b92506101000a81548161ffff021916908361ffff160217905550611152600d5473ffffffffffffffffffffffffffffffffffffffff1690565b73ffffffffffffffffffffffffffffffffffffffff166108fc349081150290604051600060405180830381858888f19350505050158015611197573d6000803e3d6000fd5b5060005b8160ff168160ff16101561123b576111d033600b546111bb906001612d71565b60405180602001604052806000815250611b04565b600b5461ffff163373ffffffffffffffffffffffffffffffffffffffff167f120f7643a868d0c3b39425502189762d09eb957f3c64608f1d3ba86d640f7103600f5460405161122191815260200190565b60405180910390a38061123381612d84565b91505061119b565b506112466001600e55565b50565b60606004805461064a90612c4c565b611263338383611ba7565b5050565b61127133836115d1565b6112fd576040517f08c379a000000000000000000000000000000000000000000000000000000000815260206004820152602d60248201527f4552433732313a2063616c6c6572206973206e6f7420746f6b656e206f776e6560448201527f72206f7220617070726f7665640000000000000000000000000000000000000060648201526084016107c5565b61130984848484611cd4565b50505050565b6060601061131c83611d77565b60405160200161132d929190612dbf565b6040516020818303038152906040529050919050565b61134b611999565b73ffffffffffffffffffffffffffffffffffffffff81166113ee576040517f08c379a000000000000000000000000000000000000000000000000000000000815260206004820152603560248201527f4c6f7265756d4e46543a3a7472616e736665724f776e6572736869702829206e60448201527f65774f776e6572203d3d2061646472657373283029000000000000000000000060648201526084016107c5565b6113f781611a1a565b611246817f0000000000000000000000000000000000000000000000000000000000000000611e35565b60007f01ffc9a7000000000000000000000000000000000000000000000000000000007fffffffff00000000000000000000000000000000000000000000000000000000831614806106355750507fffffffff000000000000000000000000000000000000000000000000000000001660009081526020819052604090205460ff1690565b60008181526005602052604090205473ffffffffffffffffffffffffffffffffffffffff16611246576040517f08c379a000000000000000000000000000000000000000000000000000000000815260206004820152601860248201527f4552433732313a20696e76616c696420746f6b656e204944000000000000000060448201526064016107c5565b600081815260076020526040902080547fffffffffffffffffffffffff00000000000000000000000000000000000000001673ffffffffffffffffffffffffffffffffffffffff8416908117909155819061158b82610ca9565b73ffffffffffffffffffffffffffffffffffffffff167f8c5be1e5ebec7d5bd14f71427d1e84f3dd0314c0f7b2291e5b200ac8c7c3b92560405160405180910390a45050565b6000806115dd83610ca9565b90508073ffffffffffffffffffffffffffffffffffffffff168473ffffffffffffffffffffffffffffffffffffffff16148061164b575073ffffffffffffffffffffffffffffffffffffffff80821660009081526008602090815260408083209388168352929052205460ff165b8061168957508373ffffffffffffffffffffffffffffffffffffffff16611671846106cd565b73ffffffffffffffffffffffffffffffffffffffff16145b949350505050565b8273ffffffffffffffffffffffffffffffffffffffff166116b182610ca9565b73ffffffffffffffffffffffffffffffffffffffff1614611754576040517f08c379a000000000000000000000000000000000000000000000000000000000815260206004820152602560248201527f4552433732313a207472616e736665722066726f6d20696e636f72726563742060448201527f6f776e657200000000000000000000000000000000000000000000000000000060648201526084016107c5565b73ffffffffffffffffffffffffffffffffffffffff82166117f6576040517f08c379a0000000000000000000000000000000000000000000000000000000008152602060048201526024808201527f4552433732313a207472616e7366657220746f20746865207a65726f2061646460448201527f726573730000000000000000000000000000000000000000000000000000000060648201526084016107c5565b6118038383836001611fae565b8273ffffffffffffffffffffffffffffffffffffffff1661182382610ca9565b73ffffffffffffffffffffffffffffffffffffffff16146118c6576040517f08c379a000000000000000000000000000000000000000000000000000000000815260206004820152602560248201527f4552433732313a207472616e736665722066726f6d20696e636f72726563742060448201527f6f776e657200000000000000000000000000000000000000000000000000000060648201526084016107c5565b600081815260076020908152604080832080547fffffffffffffffffffffffff000000000000000000000000000000000000000090811690915573ffffffffffffffffffffffffffffffffffffffff8781168086526006855283862080547fffffffffffffffffffffffffffffffffffffffffffffffffffffffffffffffff01905590871680865283862080546001019055868652600590945282852080549092168417909155905184937fddf252ad1be2c89b69c2b068fc378daa952ba7f163c4a11628f55a4df523b3ef91a4505050565b600d5473ffffffffffffffffffffffffffffffffffffffff163314610e15576040517f08c379a000000000000000000000000000000000000000000000000000000000815260206004820181905260248201527f4f776e61626c653a2063616c6c6572206973206e6f7420746865206f776e657260448201526064016107c5565b600d805473ffffffffffffffffffffffffffffffffffffffff8381167fffffffffffffffffffffffff0000000000000000000000000000000000000000831681179093556040519116919082907f8be0079c531659141344cd1fd0a4f28419497f9722a3daafe3b4186f6b6457e090600090a35050565b6002600e5403611afd576040517f08c379a000000000000000000000000000000000000000000000000000000000815260206004820152601f60248201527f5265656e7472616e637947756172643a207265656e7472616e742063616c6c0060448201526064016107c5565b6002600e55565b611b0e838361215e565b611b1b6000848484612391565b61088d576040517f08c379a000000000000000000000000000000000000000000000000000000000815260206004820152603260248201527f4552433732313a207472616e7366657220746f206e6f6e20455243373231526560448201527f63656976657220696d706c656d656e746572000000000000000000000000000060648201526084016107c5565b8173ffffffffffffffffffffffffffffffffffffffff168373ffffffffffffffffffffffffffffffffffffffff1603611c3c576040517f08c379a000000000000000000000000000000000000000000000000000000000815260206004820152601960248201527f4552433732313a20617070726f766520746f2063616c6c65720000000000000060448201526064016107c5565b73ffffffffffffffffffffffffffffffffffffffff83811660008181526008602090815260408083209487168084529482529182902080547fffffffffffffffffffffffffffffffffffffffffffffffffffffffffffffff001686151590811790915591519182527f17307eab39ab6107e8899845ad3d59bd9653f200f220920489ca2b5937696c31910160405180910390a3505050565b611cdf848484611691565b611ceb84848484612391565b611309576040517f08c379a000000000000000000000000000000000000000000000000000000000815260206004820152603260248201527f4552433732313a207472616e7366657220746f206e6f6e20455243373231526560448201527f63656976657220696d706c656d656e746572000000000000000000000000000060648201526084016107c5565b60606000611d8483612584565b600101905060008167ffffffffffffffff811115611da457611da4612af0565b6040519080825280601f01601f191660200182016040528015611dce576020820181803683370190505b5090508181016020015b7fffffffffffffffffffffffffffffffffffffffffffffffffffffffffffffffff017f3031323334353637383961626364656600000000000000000000000000000000600a86061a8153600a8504945084611dd857509392505050565b6127106bffffffffffffffffffffffff82161115611ed5576040517f08c379a000000000000000000000000000000000000000000000000000000000815260206004820152602a60248201527f455243323938313a20726f79616c7479206665652077696c6c2065786365656460448201527f2073616c6550726963650000000000000000000000000000000000000000000060648201526084016107c5565b73ffffffffffffffffffffffffffffffffffffffff8216611f52576040517f08c379a000000000000000000000000000000000000000000000000000000000815260206004820152601960248201527f455243323938313a20696e76616c69642072656365697665720000000000000060448201526064016107c5565b6040805180820190915273ffffffffffffffffffffffffffffffffffffffff9092168083526bffffffffffffffffffffffff90911660209092018290527401000000000000000000000000000000000000000090910217600155565b611fba84848484612666565b600181111561204b576040517f08c379a000000000000000000000000000000000000000000000000000000000815260206004820152603560248201527f455243373231456e756d657261626c653a20636f6e736563757469766520747260448201527f616e7366657273206e6f7420737570706f72746564000000000000000000000060648201526084016107c5565b8173ffffffffffffffffffffffffffffffffffffffff85166120b4576120af81600b80546000838152600c60205260408120829055600182018355919091527f0175b7a638427703f0dbe7bb9bbf987a2551717b34e79f33b5b1008d1fa01db90155565b6120f1565b8373ffffffffffffffffffffffffffffffffffffffff168573ffffffffffffffffffffffffffffffffffffffff16146120f1576120f18582612722565b73ffffffffffffffffffffffffffffffffffffffff841661211a57612115816127d9565b612157565b8473ffffffffffffffffffffffffffffffffffffffff168473ffffffffffffffffffffffffffffffffffffffff1614612157576121578482612888565b5050505050565b73ffffffffffffffffffffffffffffffffffffffff82166121db576040517f08c379a000000000000000000000000000000000000000000000000000000000815260206004820181905260248201527f4552433732313a206d696e7420746f20746865207a65726f206164647265737360448201526064016107c5565b60008181526005602052604090205473ffffffffffffffffffffffffffffffffffffffff1615612267576040517f08c379a000000000000000000000000000000000000000000000000000000000815260206004820152601c60248201527f4552433732313a20746f6b656e20616c7265616479206d696e7465640000000060448201526064016107c5565b612275600083836001611fae565b60008181526005602052604090205473ffffffffffffffffffffffffffffffffffffffff1615612301576040517f08c379a000000000000000000000000000000000000000000000000000000000815260206004820152601c60248201527f4552433732313a20746f6b656e20616c7265616479206d696e7465640000000060448201526064016107c5565b73ffffffffffffffffffffffffffffffffffffffff8216600081815260066020908152604080832080546001019055848352600590915280822080547fffffffffffffffffffffffff0000000000000000000000000000000000000000168417905551839291907fddf252ad1be2c89b69c2b068fc378daa952ba7f163c4a11628f55a4df523b3ef908290a45050565b600073ffffffffffffffffffffffffffffffffffffffff84163b15612579576040517f150b7a0200000000000000000000000000000000000000000000000000000000815273ffffffffffffffffffffffffffffffffffffffff85169063150b7a0290612408903390899088908890600401612ea0565b6020604051808303816000875af1925050508015612461575060408051601f3d9081017fffffffffffffffffffffffffffffffffffffffffffffffffffffffffffffffe016820190925261245e91810190612ee9565b60015b61252e573d80801561248f576040519150601f19603f3d011682016040523d82523d6000602084013e612494565b606091505b508051600003612526576040517f08c379a000000000000000000000000000000000000000000000000000000000815260206004820152603260248201527f4552433732313a207472616e7366657220746f206e6f6e20455243373231526560448201527f63656976657220696d706c656d656e746572000000000000000000000000000060648201526084016107c5565b805181602001fd5b7fffffffff00000000000000000000000000000000000000000000000000000000167f150b7a0200000000000000000000000000000000000000000000000000000000149050611689565b506001949350505050565b6000807a184f03e93ff9f4daa797ed6e38ed64bf6a1f01000000000000000083106125cd577a184f03e93ff9f4daa797ed6e38ed64bf6a1f010000000000000000830492506040015b6d04ee2d6d415b85acef810000000083106125f9576d04ee2d6d415b85acef8100000000830492506020015b662386f26fc10000831061261757662386f26fc10000830492506010015b6305f5e100831061262f576305f5e100830492506008015b612710831061264357612710830492506004015b60648310612655576064830492506002015b600a83106106355760010192915050565b60018111156113095773ffffffffffffffffffffffffffffffffffffffff8416156126c65773ffffffffffffffffffffffffffffffffffffffff8416600090815260066020526040812080548392906126c0908490612f06565b90915550505b73ffffffffffffffffffffffffffffffffffffffff8316156113095773ffffffffffffffffffffffffffffffffffffffff831660009081526006602052604081208054839290612717908490612d71565b909155505050505050565b6000600161272f84610d35565b6127399190612f06565b6000838152600a60205260409020549091508082146127995773ffffffffffffffffffffffffffffffffffffffff841660009081526009602090815260408083208584528252808320548484528184208190558352600a90915290208190555b506000918252600a6020908152604080842084905573ffffffffffffffffffffffffffffffffffffffff9094168352600981528383209183525290812055565b600b546000906127eb90600190612f06565b6000838152600c6020526040812054600b805493945090928490811061281357612813612d20565b9060005260206000200154905080600b838154811061283457612834612d20565b6000918252602080832090910192909255828152600c9091526040808220849055858252812055600b80548061286c5761286c612f19565b6001900381819060005260206000200160009055905550505050565b600061289383610d35565b73ffffffffffffffffffffffffffffffffffffffff90931660009081526009602090815260408083208684528252808320859055938252600a9052919091209190915550565b803573ffffffffffffffffffffffffffffffffffffffff811681146128fd57600080fd5b919050565b60006020828403121561291457600080fd5b61291d826128d9565b9392505050565b7fffffffff000000000000000000000000000000000000000000000000000000008116811461124657600080fd5b60006020828403121561296457600080fd5b813561291d81612924565b60005b8381101561298a578181015183820152602001612972565b50506000910152565b600081518084526129ab81602086016020860161296f565b601f017fffffffffffffffffffffffffffffffffffffffffffffffffffffffffffffffe0169290920160200192915050565b60208152600061291d6020830184612993565b600060208284031215612a0257600080fd5b5035919050565b60008060408385031215612a1c57600080fd5b612a25836128d9565b946020939093013593505050565b600080600060608486031215612a4857600080fd5b612a51846128d9565b9250612a5f602085016128d9565b9150604084013590509250925092565b60008060408385031215612a8257600080fd5b50508035926020909101359150565b600060208284031215612aa357600080fd5b813560ff8116811461291d57600080fd5b60008060408385031215612ac757600080fd5b612ad0836128d9565b915060208301358015158114612ae557600080fd5b809150509250929050565b7f4e487b7100000000000000000000000000000000000000000000000000000000600052604160045260246000fd5b60008060008060808587031215612b3557600080fd5b612b3e856128d9565b9350612b4c602086016128d9565b925060408501359150606085013567ffffffffffffffff80821115612b7057600080fd5b818701915087601f830112612b8457600080fd5b813581811115612b9657612b96612af0565b604051601f82017fffffffffffffffffffffffffffffffffffffffffffffffffffffffffffffffe0908116603f01168101908382118183101715612bdc57612bdc612af0565b816040528281528a6020848701011115612bf557600080fd5b82602086016020830137600060208483010152809550505050505092959194509250565b60008060408385031215612c2c57600080fd5b612c35836128d9565b9150612c43602084016128d9565b90509250929050565b600181811c90821680612c6057607f821691505b602082108103612c99577f4e487b7100000000000000000000000000000000000000000000000000000000600052602260045260246000fd5b50919050565b7f4e487b7100000000000000000000000000000000000000000000000000000000600052601160045260246000fd5b808202811582820484141761063557610635612c9f565b600082612d1b577f4e487b7100000000000000000000000000000000000000000000000000000000600052601260045260246000fd5b500490565b7f4e487b7100000000000000000000000000000000000000000000000000000000600052603260045260246000fd5b61ffff818116838216019080821115612d6a57612d6a612c9f565b5092915050565b8082018082111561063557610635612c9f565b600060ff821660ff8103612d9a57612d9a612c9f565b60010192915050565b60008151612db581856020860161296f565b9290920192915050565b600080845481600182811c915080831680612ddb57607f831692505b60208084108203612e13577f4e487b710000000000000000000000000000000000000000000000000000000086526022600452602486fd5b818015612e275760018114612e5a57612e87565b7fffffffffffffffffffffffffffffffffffffffffffffffffffffffffffffff0086168952841515850289019650612e87565b60008b81526020902060005b86811015612e7f5781548b820152908501908301612e66565b505084890196505b505050505050612e978185612da3565b95945050505050565b600073ffffffffffffffffffffffffffffffffffffffff808716835280861660208401525083604083015260806060830152612edf6080830184612993565b9695505050505050565b600060208284031215612efb57600080fd5b815161291d81612924565b8181038181111561063557610635612c9f565b7f4e487b7100000000000000000000000000000000000000000000000000000000600052603160045260246000fdfea2646970667358221220434182b4cf86e297182a573b42e88dd08e57f82f4195324f61165019b59ac9be64736f6c63430008120033",
    "linkReferences": {}
  },
  "methodIdentifiers": {
    "MAX_MINT()": "f0292a03",
    "MAX_SUPPLY()": "32cb6b0c",
    "approve(address,uint256)": "095ea7b3",
    "balanceOf(address)": "70a08231",
    "getApproved(uint256)": "081812fc",
    "isApprovedForAll(address,address)": "e985e9c5",
    "mintCost()": "bdb4b848",
    "name()": "06fdde03",
    "owner()": "8da5cb5b",
    "ownerOf(uint256)": "6352211e",
    "publicMint(uint8)": "858e83b5",
    "renounceOwnership()": "715018a6",
    "royaltyFraction()": "e7dee99f",
    "royaltyInfo(uint256,uint256)": "2a55205a",
    "safeTransferFrom(address,address,uint256)": "42842e0e",
    "safeTransferFrom(address,address,uint256,bytes)": "b88d4fde",
    "setApprovalForAll(address,bool)": "a22cb465",
    "supportsInterface(bytes4)": "01ffc9a7",
    "symbol()": "95d89b41",
    "tokenByIndex(uint256)": "4f6ccce7",
    "tokenOfOwnerByIndex(address,uint256)": "2f745c59",
    "tokenURI(uint256)": "c87b56dd",
    "tokenUri()": "355e0c5d",
    "totalMinted(address)": "003d4790",
    "totalSupply()": "18160ddd",
    "transferFrom(address,address,uint256)": "23b872dd",
    "transferOwnership(address)": "f2fde38b",
    "updateMintCost(uint256)": "28d911fb"
  },
  "id": 35
}